:10000E000106011501260137014A015D01710188C2
:10001E00019F01B801D201EE0002040507090B0190
:10002E0002040810204017021703180319021503C3
:10003E0016031703170317031803190216031703E2
:10004E0018021803170315021803170318021003DA
:10005E0015031602150316031702170318031902C8
:10006E001A031B031F031F0317031803190216039A
:10007E0017031803170318031F031F021603170392
:10008E00180317031803200320021F031B031F6608
:10009E002003210320031F031B031F661F031B03E3
:1000AE001903190315031A661A0319031503150309
:1000BE001703166617041804180319031F031B03EE
:1000CE001F662003210320031F031B031F661F034C
:1000DE001B031903190315031A661A0319031903CF
:1000EE001F031B031F001A031A031A031B031B0310
:1000FE001A0319031902170315171503160317030D
:10010E0018031704180E18031704180E1866170391
:10011E00180317031803200320021F031B031F6677
:10012E002003210320031F031B031F661F041B0E46
:10013E001B031903190315031A661A031903150372
:10014E0015031703166617041804180319031F0363
:10015E001B031F662003210320031F031B031F66BF
:10016E001F031B031903190315031A661A03190338
:10017E0019031F031B031F00180218031A03190D7E
:10018E0015031502186616021702150000000F015E
:10019E00150216021766180317021502160115022C
:1001AE00100215000F01150216021702170318038D
:1001BE001902150218661703190216031703160003
:1001CE00170119021B021B701A031A0119021903D7
:1001DE001A031B021A0D19031700186618031902C9
:1001EE001A02190C180D1703160111021103100330
:1001FE000F0C100215001F011A01186619031A01BF
:10020E001B021B031B031B0C1A0D190317001F01E6
:10021E001A01186619031A011002100310031A0CA2
:10022E00180D170316000F0115021602177018038A
:10023E001702150315031666160316021603150389
:10024E00100210011101116610030F0C1A0219028F
:10025E00160316031866180318021703160319005F
:10026E0000001703160317011603170316031501D3
:10027E00100315031602160D1703160315031003AC
:10028E00100E15040F01170316031701160317039B
:10029E0016031501100315031602160D1703160388
:1002AE001503100315031601170316031701160382
:1002BE00170316031501100315031602160D170367
:1002CE00160315031003100E15040F01170319035F
:1002DE00190119031A03190317011603160316023F
:1002EE00160D1703160315031003100D1500190331
:1002FE0019031A031F031B031B031A03170D1603FF
:10030E001603160D17011703170319031A021A0203
:10031E001003170D160316011703190319031703FC
:10032E0019021F021B031A031A0E1B0417021A03CB
:10033E001A031A0E1B041A03190317031603170DBB
:10034E00160317031901190319031A031F031B03BD
:10035E001B031A03170D16031603160317011703B3
:10036E00170319031A021A021003170D16031601AA
:10037E00170319031903170319031F021B031A038B
:10038E001A0E1B0417021A031A031A0E1B04171651
:10039E001A031A031A0E1B041A0319031703160362
:0803AE000F021003150000000E
:10089A00C2A3E4F53CF53C853C8D853C8B758911FA
:0908AA00D2A9C28CC28ED2AF2289
:03000B000208BF29
:0908BF00B2A3853B8C853B8A3213
:1003B6007BFF750C00750D03750E01750F68E4FD66
:0803C6008B088A09890A8D0BDE
:1003CE00E4F528E528250BFFD3940B4019E52825E5
:1003DE00E0240EF582E43400F58374019325E0FFEA
:1003EE00E49333FE8013EF25E0240EF582E434000F
:1003FE00F583E493FE740193FFE52825E02410F8BD
:10040E00A60608A607E50D6401450C7018E528251B
:10041E00E02410F8C000E6FE08E67802CEC313CE44
:10042E0013D8F9801EE50D6403450C701CE52825D4
:10043E00E02410F8C000E6FE08E67802C333CE339F
:10044E00CED8F9D000A60608F60528E528640C607B
:10045E00030203D1E4F533F534AB08AA09A90A85E2
:10046E003482853383120670600D74022534F534A0
:10047E00E43533F53380E2E4F529F52AAB08AA0911
:10048E00A90A852A82852983120670F535F536ACC0
:10049E000EAD0F7E2E7FE012069D8E2B8F2CE52C3F
:1004AE007802CEC313CE13D8F9F5328E317802C34B
:1004BE0033CE33CED8F9FF7C007D0512069DC3E501
:1004CE00329FF532E5319EF531C28CD28EC3E52ACC
:1004DE009534E5299533400302066DE53575F00A2E
:1004EE008485F037E53575F00A8475F00A84ADF031
:1004FE00E53575F06484FFE537900025932F25E0F0
:10050E002410F8E6FE08E6FFE5376047BD010BEF65
:10051E007802CEC313CE13D8F9FFBD030BEF7802CA
:10052E00C333CE33CED8F9FFAB07AA06E4F9F87F72
:10053E00507EC3FDFC12080FE47B0AFAF9F812068E
:10054E00F2C3E49FFFE49EF53B8F3DF58CE53D2421
:10055E000CF58AE53675F00A84E5F090002D93F5DA
:10056E0038E53675F00A8475F00A8485F039E5367B
:10057E0075F06484F53AE538FD7C00AE2BAF2C1295
:10058E00069DAB07AA06E53AB4010BEAC313FEEBD0
:10059E00132BFBEE3AFAE5396401603DE539702E16
:1005AE00E538D39404500DC3EB9532F52EEA953110
:1005BE00F52D8029EBAE027802C333CE33CED8F9B7
:1005CE00FF7C007D0512069D8E2D8F2E800FEAC3B7
:1005DE0013F52DEB13F52E80048A2D8B2EE5377037
:1005EE0002FAFBC3EB952EF530EA952DF52FE53784
:1005FE00601BD28C852E28E528D39400400F308FB7
:10060E00FD853C8D853C8BC28F152880EAE53045F3
:10061E002F601DC28CC2A3853028E528D3940040DC
:10062E000F308FFD853C8D853C8BC28F152880EA5F
:10063E007402252AF52AE43529F529AB08AA09A959
:10064E000A852A82F583120670F535E52A2401FF04
:10065E00E435298F82F583120670F5360204DBC26B
:01066E00A3E8
:01066F002268
:1008530012089A7A0079341203B61208787A017969
:100863009C1203B61208787BFF7A0279701203B8E0
:0508730012087880DE90
:040878007FF47E018A
:10087C00D3EF9400EE940040147D6E7C00ED1D705F
:0D088C00011CED4C70F7EF1F70E61E80E3BD
:01089900223C
:030000000208B340
:0C08B300787FE4F6D8FD75813E02085302
:10067000BB010CE58229F582E5833AF583E022503F
:1006800006E92582F8E622BBFE06E92582F8E22289
:0D069000E58229F582E5833AF583E49322A3
:10069D00BC000BBE0029EF8DF084FFADF022E4CC41
:1006AD00F875F008EF2FFFEE33FEEC33FCEE9DEC0A
:1006BD00984005FCEE9DFE0FD5F0E9E4CEFD22ED50
:1006CD00F8F5F0EE8420D21CFEADF075F008EF2F9A
:1006DD00FFED33FD4007985006D5F0F222C398FD8B
:0506ED000FD5F0EA2228
:1006F200E88FF0A4CC8BF0A42CFCE98EF0A42CFCA7
:100702008AF0EDA42CFCEA8EF0A4CDA8F08BF0A424
:100712002DCC3825F0FDE98FF0A42CCD35F0FCEB83
:100722008EF0A4FEA9F0EB8FF0A4CFC5F02ECD3948
:0F073200FEE43CFCEAA42DCE35F0FDE43CFC22B5
:10080F00C2D5E830E70FB2D5E4C39BFBE49AFAE414
:10081F0099F9E498F8EC30E717B2D51208451207AA
:10082F007DE4C39BFBE49AFAE499F9E498F880031A
:10083F0012077D30D50DE4C39FFFE49EFEE49DFDBE
:04084F00E49CFC2207
:1007410075F008758200EF2FFFEE33FECD33CDCC6F
:1007510033CCC58233C5829BED9AEC99E5829840F2
:100761000CF582EE9BFEED9AFDEC99FC0FD5F0D6CF
:10077100E4CEFBE4CDFAE4CCF9A88222B800C1B9F9
:100781000059BA002DEC8BF084CFCECDFCE5F0CB37
:10079100F97818EF2FFFEE33FEED33FDEC33FCEB70
:1007A10033FB10D703994004EB99FB0FD8E5E4F92B
:1007B100FA227818EF2FFFEE33FEED33FDEC33FC18
:1007C100C933C910D7059BE99A4007EC9BFCE99A0C
:1007D100F90FD8E0E4C9FAE4CCFB2275F010EF2F51
:1007E100FFEE33FEED33FDCC33CCC833C810D70751
:1007F1009BEC9AE899400AED9BFDEC9AFCE899F88C
:0E0801000FD5F0DAE4CDFBE4CCFAE4C8F9221E
:00000001FF
